{"abi":[{"type":"constructor","inputs":[{"name":"_cUSDAddress","type":"address","internalType":"address"},{"name":"_engagementRewards","type":"address","internalType":"address"}],"stateMutability":"nonpayable"},{"type":"function","name":"cUSD","inputs":[],"outputs":[{"name":"","type":"address","internalType":"contract IERC20"}],"stateMutability":"view"},{"type":"function","name":"claimEngagementReward","inputs":[{"name":"_inviter","type":"address","internalType":"address"},{"name":"_validUntilBlock","type":"uint256","internalType":"uint256"},{"name":"_signature","type":"bytes","internalType":"bytes"}],"outputs":[],"stateMutability":"nonpayable"},{"type":"function","name":"contribute","inputs":[{"name":"_amount","type":"uint256","internalType":"uint256"}],"outputs":[],"stateMutability":"nonpayable"},{"type":"function","name":"emergencyPause","inputs":[],"outputs":[],"stateMutability":"nonpayable"},{"type":"function","name":"engagementRewards","inputs":[],"outputs":[{"name":"","type":"address","internalType":"contract IEngagementRewards"}],"stateMutability":"view"},{"type":"function","name":"engagementRewardsEnabled","inputs":[],"outputs":[{"name":"","type":"bool","internalType":"bool"}],"stateMutability":"view"},{"type":"function","name":"executeWithdrawal","inputs":[{"name":"_requestId","type":"uint256","internalType":"uint256"}],"outputs":[],"stateMutability":"nonpayable"},{"type":"function","name":"getContractBalance","inputs":[],"outputs":[{"name":"","type":"uint256","internalType":"uint256"}],"stateMutability":"view"},{"type":"function","name":"getPoolStats","inputs":[],"outputs":[{"name":"balance","type":"uint256","internalType":"uint256"},{"name":"workers_count","type":"uint256","internalType":"uint256"},{"name":"activeRequests","type":"uint256","internalType":"uint256"}],"stateMutability":"view"},{"type":"function","name":"getWithdrawalLimits","inputs":[{"name":"_worker","type":"address","internalType":"address"}],"outputs":[{"name":"tier1Limit","type":"uint256","internalType":"uint256"},{"name":"tier2Limit","type":"uint256","internalType":"uint256"},{"name":"needsVerification","type":"bool","internalType":"bool"}],"stateMutability":"view"},{"type":"function","name":"getWithdrawalRequest","inputs":[{"name":"_requestId","type":"uint256","internalType":"uint256"}],"outputs":[{"name":"worker","type":"address","internalType":"address"},{"name":"amount","type":"uint256","internalType":"uint256"},{"name":"reason","type":"string","internalType":"string"},{"name":"createdAt","type":"uint256","internalType":"uint256"},{"name":"votesFor","type":"uint256","internalType":"uint256"},{"name":"votesAgainst","type":"uint256","internalType":"uint256"},{"name":"executed","type":"bool","internalType":"bool"},{"name":"approved","type":"bool","internalType":"bool"}],"stateMutability":"view"},{"type":"function","name":"getWorkerInfo","inputs":[{"name":"_worker","type":"address","internalType":"address"}],"outputs":[{"name":"isRegistered","type":"bool","internalType":"bool"},{"name":"isVerified","type":"bool","internalType":"bool"},{"name":"totalContributions","type":"uint256","internalType":"uint256"},{"name":"lastContributionTime","type":"uint256","internalType":"uint256"},{"name":"joinedAt","type":"uint256","internalType":"uint256"},{"name":"lastWithdrawalTime","type":"uint256","internalType":"uint256"},{"name":"withdrawalCount","type":"uint256","internalType":"uint256"},{"name":"invitedBy","type":"address","internalType":"address"},{"name":"totalInvites","type":"uint256","internalType":"uint256"},{"name":"hasClaimedEngagementReward","type":"bool","internalType":"bool"},{"name":"gigWorkType","type":"string","internalType":"string"},{"name":"location","type":"string","internalType":"string"},{"name":"yearsExperience","type":"uint8","internalType":"uint8"},{"name":"monthlyIncome","type":"uint256","internalType":"uint256"}],"stateMutability":"view"},{"type":"function","name":"hasVoted","inputs":[{"name":"_requestId","type":"uint256","internalType":"uint256"},{"name":"_voter","type":"address","internalType":"address"}],"outputs":[{"name":"","type":"bool","internalType":"bool"}],"stateMutability":"view"},{"type":"function","name":"maxWithdrawalPercentage","inputs":[],"outputs":[{"name":"","type":"uint256","internalType":"uint256"}],"stateMutability":"view"},{"type":"function","name":"minimumContribution","inputs":[],"outputs":[{"name":"","type":"uint256","internalType":"uint256"}],"stateMutability":"view"},{"type":"function","name":"owner","inputs":[],"outputs":[{"name":"","type":"address","internalType":"address"}],"stateMutability":"view"},{"type":"function","name":"paused","inputs":[],"outputs":[{"name":"","type":"bool","internalType":"bool"}],"stateMutability":"view"},{"type":"function","name":"registerWorker","inputs":[{"name":"_gigWorkType","type":"string","internalType":"string"},{"name":"_location","type":"string","internalType":"string"},{"name":"_yearsExperience","type":"uint8","internalType":"uint8"},{"name":"_monthlyIncome","type":"uint256","internalType":"uint256"},{"name":"_inviter","type":"address","internalType":"address"},{"name":"_validUntilBlock","type":"uint256","internalType":"uint256"},{"name":"_signature","type":"bytes","internalType":"bytes"}],"outputs":[],"stateMutability":"nonpayable"},{"type":"function","name":"renounceOwnership","inputs":[],"outputs":[],"stateMutability":"nonpayable"},{"type":"function","name":"requestWithdrawal","inputs":[{"name":"_amount","type":"uint256","internalType":"uint256"},{"name":"_reason","type":"string","internalType":"string"}],"outputs":[{"name":"","type":"uint256","internalType":"uint256"}],"stateMutability":"nonpayable"},{"type":"function","name":"setEngagementRewards","inputs":[{"name":"_newContract","type":"address","internalType":"address"},{"name":"_enabled","type":"bool","internalType":"bool"}],"outputs":[],"stateMutability":"nonpayable"},{"type":"function","name":"setMinimumContribution","inputs":[{"name":"_newMinimum","type":"uint256","internalType":"uint256"}],"outputs":[],"stateMutability":"nonpayable"},{"type":"function","name":"setVotingThreshold","inputs":[{"name":"_newThreshold","type":"uint256","internalType":"uint256"}],"outputs":[],"stateMutability":"nonpayable"},{"type":"function","name":"totalPoolBalance","inputs":[],"outputs":[{"name":"","type":"uint256","internalType":"uint256"}],"stateMutability":"view"},{"type":"function","name":"totalWorkers","inputs":[],"outputs":[{"name":"","type":"uint256","internalType":"uint256"}],"stateMutability":"view"},{"type":"function","name":"transferOwnership","inputs":[{"name":"newOwner","type":"address","internalType":"address"}],"outputs":[],"stateMutability":"nonpayable"},{"type":"function","name":"unpause","inputs":[],"outputs":[],"stateMutability":"nonpayable"},{"type":"function","name":"verifiedIdentities","inputs":[{"name":"","type":"address","internalType":"address"}],"outputs":[{"name":"","type":"bool","internalType":"bool"}],"stateMutability":"view"},{"type":"function","name":"verifyWorker","inputs":[{"name":"_worker","type":"address","internalType":"address"}],"outputs":[],"stateMutability":"nonpayable"},{"type":"function","name":"voteOnWithdrawal","inputs":[{"name":"_requestId","type":"uint256","internalType":"uint256"},{"name":"_support","type":"bool","internalType":"bool"}],"outputs":[],"stateMutability":"nonpayable"},{"type":"function","name":"votingPeriod","inputs":[],"outputs":[{"name":"","type":"uint256","internalType":"uint256"}],"stateMutability":"view"},{"type":"function","name":"votingThreshold","inputs":[],"outputs":[{"name":"","type":"uint256","internalType":"uint256"}],"stateMutability":"view"},{"type":"function","name":"withdrawalCooldown","inputs":[],"outputs":[{"name":"","type":"uint256","internalType":"uint256"}],"stateMutability":"view"},{"type":"function","name":"withdrawalRequestCount","inputs":[],"outputs":[{"name":"","type":"uint256","internalType":"uint256"}],"stateMutability":"view"},{"type":"function","name":"withdrawalRequests","inputs":[{"name":"","type":"uint256","internalType":"uint256"}],"outputs":[{"name":"worker","type":"address","internalType":"address"},{"name":"amount","type":"uint256","internalType":"uint256"},{"name":"reason","type":"string","internalType":"string"},{"name":"createdAt","type":"uint256","internalType":"uint256"},{"name":"votesFor","type":"uint256","internalType":"uint256"},{"name":"votesAgainst","type":"uint256","internalType":"uint256"},{"name":"executed","type":"bool","internalType":"bool"},{"name":"approved","type":"bool","internalType":"bool"}],"stateMutability":"view"},{"type":"function","name":"workers","inputs":[{"name":"","type":"address","internalType":"address"}],"outputs":[{"name":"isRegistered","type":"bool","internalType":"bool"},{"name":"isVerified","type":"bool","internalType":"bool"},{"name":"totalContributions","type":"uint256","internalType":"uint256"},{"name":"lastContributionTime","type":"uint256","internalType":"uint256"},{"name":"joinedAt","type":"uint256","internalType":"uint256"},{"name":"lastWithdrawalTime","type":"uint256","internalType":"uint256"},{"name":"withdrawalCount","type":"uint256","internalType":"uint256"},{"name":"invitedBy","type":"address","internalType":"address"},{"name":"totalInvites","type":"uint256","internalType":"uint256"},{"name":"hasClaimedEngagementReward","type":"bool","internalType":"bool"},{"name":"gigWorkType","type":"string","internalType":"string"},{"name":"location","type":"string","internalType":"string"},{"name":"yearsExperience","type":"uint8","internalType":"uint8"},{"name":"monthlyIncome","type":"uint256","internalType":"uint256"}],"stateMutability":"view"},{"type":"event","name":"ContributionMade","inputs":[{"name":"worker","type":"address","indexed":true,"internalType":"address"},{"name":"amount","type":"uint256","indexed":false,"internalType":"uint256"},{"name":"timestamp","type":"uint256","indexed":false,"internalType":"uint256"}],"anonymous":false},{"type":"event","name":"EmergencyPause","inputs":[{"name":"timestamp","type":"uint256","indexed":false,"internalType":"uint256"}],"anonymous":false},{"type":"event","name":"EmergencyUnpause","inputs":[{"name":"timestamp","type":"uint256","indexed":false,"internalType":"uint256"}],"anonymous":false},{"type":"event","name":"EngagementRewardClaimed","inputs":[{"name":"worker","type":"address","indexed":true,"internalType":"address"},{"name":"inviter","type":"address","indexed":true,"internalType":"address"},{"name":"success","type":"bool","indexed":false,"internalType":"bool"},{"name":"timestamp","type":"uint256","indexed":false,"internalType":"uint256"}],"anonymous":false},{"type":"event","name":"EngagementRewardsUpdated","inputs":[{"name":"newContract","type":"address","indexed":true,"internalType":"address"},{"name":"enabled","type":"bool","indexed":false,"internalType":"bool"}],"anonymous":false},{"type":"event","name":"OwnershipTransferred","inputs":[{"name":"previousOwner","type":"address","indexed":true,"internalType":"address"},{"name":"newOwner","type":"address","indexed":true,"internalType":"address"}],"anonymous":false},{"type":"event","name":"Paused","inputs":[{"name":"account","type":"address","indexed":false,"internalType":"address"}],"anonymous":false},{"type":"event","name":"Unpaused","inputs":[{"name":"account","type":"address","indexed":false,"internalType":"address"}],"anonymous":false},{"type":"event","name":"VoteCast","inputs":[{"name":"requestId","type":"uint256","indexed":true,"internalType":"uint256"},{"name":"voter","type":"address","indexed":true,"internalType":"address"},{"name":"support","type":"bool","indexed":false,"internalType":"bool"},{"name":"timestamp","type":"uint256","indexed":false,"internalType":"uint256"}],"anonymous":false},{"type":"event","name":"WithdrawalExecuted","inputs":[{"name":"requestId","type":"uint256","indexed":true,"internalType":"uint256"},{"name":"worker","type":"address","indexed":true,"internalType":"address"},{"name":"amount","type":"uint256","indexed":false,"internalType":"uint256"},{"name":"timestamp","type":"uint256","indexed":false,"internalType":"uint256"}],"anonymous":false},{"type":"event","name":"WithdrawalRejected","inputs":[{"name":"requestId","type":"uint256","indexed":true,"internalType":"uint256"},{"name":"timestamp","type":"uint256","indexed":false,"internalType":"uint256"}],"anonymous":false},{"type":"event","name":"WithdrawalRequested","inputs":[{"name":"requestId","type":"uint256","indexed":true,"internalType":"uint256"},{"name":"worker","type":"address","indexed":true,"internalType":"address"},{"name":"amount","type":"uint256","indexed":false,"internalType":"uint256"},{"name":"reason","type":"string","indexed":false,"internalType":"string"},{"name":"timestamp","type":"uint256","indexed":false,"internalType":"uint256"}],"anonymous":false},{"type":"event","name":"WorkerRegistered","inputs":[{"name":"worker","type":"address","indexed":true,"internalType":"address"},{"name":"inviter","type":"address","indexed":true,"internalType":"address"},{"name":"gigWorkType","type":"string","indexed":false,"internalType":"string"},{"name":"location","type":"string","indexed":false,"internalType":"string"},{"name":"yearsExperience","type":"uint8","indexed":false,"internalType":"uint8"},{"name":"monthlyIncome","type":"uint256","indexed":false,"internalType":"uint256"},{"name":"timestamp","type":"uint256","indexed":false,"internalType":"uint256"}],"anonymous":false},{"type":"event","name":"WorkerVerified","inputs":[{"name":"worker","type":"address","indexed":true,"internalType":"address"},{"name":"timestamp","type":"uint256","indexed":false,"internalType":"uint256"}],"anonymous":false},{"type":"error","name":"EnforcedPause","inputs":[]},{"type":"error","name":"ExpectedPause","inputs":[]},{"type":"error","name":"OwnableInvalidOwner","inputs":[{"name":"owner","type":"address","internalType":"address"}]},{"type":"error","name":"OwnableUnauthorizedAccount","inputs":[{"name":"account","type":"address","internalType":"address"}]},{"type":"error","name":"ReentrancyGuardReentrantCall","inputs":[]}],"bytecode":{"object":"0x60a034620001a857601f6200267238819003918201601f19168301916001600160401b03831184841017620001ac578084926040948552833981010312620001a8576200005a60206200005283620001c0565b9201620001c0565b90331562000190575f8054336001600160a01b03198216811783556040516001600160a01b039390928416907f8be0079c531659141344cd1fd0a4f28419497f9722a3daafe3b4186f6b6457e09080a360018055816002549360ff198516600255674563918244f4000060095562093a80600a556276a700600b55603c600c556032600d55169081156200014e5750608052821662000122575b60405161249c9081620001d682396080518181816106c3015281816115e901528181611bb70152611d000152f35b6001600160b01b03191660089190911b610100600160a81b031617600160a81b176002555f80620000f4565b62461bcd60e51b815260206004820152601460248201527f496e76616c6964206355534420616464726573730000000000000000000000006044820152606490fd5b604051631e4fbdf760e01b81525f6004820152602490fd5b5f80fd5b634e487b7160e01b5f52604160045260245ffd5b51906001600160a01b0382168203620001a85756fe6080806040526004361015610012575f80fd5b5f3560e01c90816302a251a314611d695750806319e44e3214611d4c5780631b53f71114611d2f5780631fccf67214611ceb57806324f13a7614611a7f5780632b30368c1461195d578063381737b8146119405780633f4ba83a146118ad5780634048a2571461180457806343859632146117b35780634afd5d551461173d5780635026d63e1461172057806351858e271461169d5780635c975abb1461167b578063628277331461165e5780636f9fb98a146115be578063707b446614610f45578063715018a614610eee578063836761e014610e7b57806384e8d25314610e4f5780638da5cb5b14610e28578063937b258114610dbb578063937e09b114610d9e578063a53cf40914610d61578063ab9aa3b214610cb4578063ae48565114610c47578063ba2d51681461081f578063bbb85188146107f1578063c1cbbca714610655578063ce8ef7a6146105aa578063d3055aac1461039f578063d6c89c6014610382578063dba3e70414610361578063e5f79f0a14610256578063ea1491b3146102315763f2fde38b146101a8575f80fd5b3461022d57602036600319011261022d576101c1611d83565b6101c961220c565b6001600160a01b03908116908115610215575f54826001600160601b0360a01b8216175f55167f8be0079c531659141344cd1fd0a4f28419497f9722a3daafe3b4186f6b6457e05f80a3005b604051631e4fbdf760e01b81525f6004820152602490fd5b5f80fd5b3461022d575f36600319011261022d57602060ff60025460a81c166040519015158152f35b3461022d57606036600319011261022d5761026f611d83565b60443567ffffffffffffffff811161022d5761028f903690600401611f5d565b90335f5260036020526102a860ff60405f20541661218e565b6102b06121cb565b60ff60025460a81c161561031c57335f52600360205260ff600860405f200154166102e5576102e39260243590336122a8565b005b60405162461bcd60e51b815260206004820152600f60248201526e105b1c9958591e4818db185a5b5959608a1b6044820152606490fd5b60405162461bcd60e51b815260206004820152601e60248201527f456e676167656d656e742072657761726473206e6f7420656e61626c656400006044820152606490fd5b3461022d57602036600319011261022d5761037a61220c565b600435600955005b3461022d575f36600319011261022d576020600b54604051908152f35b3461022d57604036600319011261022d576004356103bb611fd9565b90335f5260206003815260ff60405f205460081c1615610577576103e26008548310611fe8565b815f52600481526103fd60ff600660405f2001541615612029565b6104056121cb565b815f526004815260405f20906104226003830154600a5490612068565b421161053d576007820190335f5281815260ff60405f2054166105095782546001600160a01b031633146104c557335f525260405f20600160ff19825416179055825f146104b1576004016104778154612075565b90555b60408051921515835242602084015233927fcbdf6214089cba887ecbf35a0b6a734589959c9763342c756bb2a80ca2bc9f6e9190a3005b6005016104be8154612075565b905561047a565b6064906040519062461bcd60e51b82526004820152601a60248201527f43616e6e6f7420766f7465206f6e206f776e20726571756573740000000000006044820152fd5b6064906040519062461bcd60e51b82526004820152600d60248201526c105b1c9958591e481d9bdd1959609a1b6044820152fd5b6064906040519062461bcd60e51b825260048201526013602482015272159bdd1a5b99c81c195c9a5bd908195b991959606a1b6044820152fd5b6064906040519062461bcd60e51b82526004820152600c60248201526b139bdd081d995c9a599a595960a21b6044820152fd5b3461022d57602036600319011261022d576001600160a01b03806105cc611d83565b165f52600360205260405f20610651815491600181015493600282015460038301549260048101549260058201549060068301541660078301549060ff6008850154169260ff600b8601541696600c86015498610637600a61063060098a01611df3565b9801611df3565b976040519d8d8f9e8f9060ff809160081c16921690611ed3565b0390f35b3461022d5760208060031936011261022d5760043590335f526003815261068260ff60405f20541661218e565b61068a6121cb565b6106926121e9565b60095482106107ad576040516323b872dd60e01b81523360048201523060248201526044810183905281816064815f7f00000000000000000000000000000000000000000000000000000000000000006001600160a01b03165af180156107a257610704915f91610775575b5061209b565b335f5260038152600160405f200161071d838254612068565b9055335f526003815242600260405f20015561073b82600754612068565b60075560405191825242908201527f5dc1fe5ab986a852c4eda8e8bb94247d13307065c593fb83f1a09be27367938260403392a260018055005b6107959150833d851161079b575b61078d8183611dd1565b810190612083565b846106fe565b503d610783565b6040513d5f823e3d90fd5b6064906040519062461bcd60e51b82526004820152601a60248201527f42656c6f77206d696e696d756d20636f6e747269627574696f6e0000000000006044820152fd5b3461022d575f36600319011261022d5760606007546006546008549060405192835260208301526040820152f35b3461022d57604036600319011261022d57602460043567ffffffffffffffff823581811161022d57610855903690600401611f5d565b9290335f526020936003855261087160ff60405f20541661218e565b6108796121cb565b8215610c0e578015610bd857335f526003855260405f206001908181015480831b9080820460021481151715610bc557861115610bbf5760ff825460081c1615610b63578511610b15575b6007548511610ad1576004015480610a7c575b50600854946108e586612075565b600855855f526004875260405f2091336001600160601b0360a01b845416178355858184015560028301918411610a69579083929161093088969561092a8454611d99565b8461211f565b5f90601f85116001146109dd57507ff347d98c67e920653396735dd920a1fb9dddf40c68277c72b267df10fba4c60794928492610988846109bd976006955f916109d2575b508160011b915f199060031b1c19161790565b90555b4260038201555f60048201555f60058201550161ffff198154169055604051958652606088870152606086019161216e565b924260408201528033940390a3604051908152f35b90508701358e610975565b90601f19851690835f528a5f20915f5b8c828210610a52575050927ff347d98c67e920653396735dd920a1fb9dddf40c68277c72b267df10fba4c6079795928795926109bd9860069610610a39575b505084811b01905561098b565b8701355f19600388901b60f8161c191690558c80610a2c565b8984013585558c9a509385019392830192016109ed565b88634e487b7160e01b5f5260416004525ffd5b600b54610a8891612068565b4210610a9457876108d7565b60405162461bcd60e51b81526004810187905260168189015275436f6f6c646f776e20706572696f642061637469766560501b6044820152606490fd5b60405162461bcd60e51b8152600481018890526019818a01527f496e73756666696369656e7420706f6f6c2062616c616e6365000000000000006044820152606490fd5b60405162461bcd60e51b8152600481018890526021818a01527f45786365656473206d6178696d756d207769746864726177616c2028323030256044820152602960f81b6064820152608490fd5b60405162461bcd60e51b815260048101899052602f818b01527f566572696669636174696f6e20726571756972656420746f206163636573732060448201526e636f6d6d756e6974792066756e647360881b6064820152608490fd5b506108c4565b89634e487b7160e01b5f5260116004525ffd5b60405162461bcd60e51b815260048101869052600f818801526e1499585cdbdb881c995c5d5a5c9959608a1b6044820152606490fd5b60405162461bcd60e51b815260048101869052601281880152710416d6f756e74206d757374206265203e20360741b6044820152606490fd5b3461022d57602036600319011261022d576004355f52600460205260405f2060018060a01b03815416906106516001820154916003810154936004820154600583015490610c9c600260068601549501611df3565b9660405197889760ff808860081c1697169589611f8b565b3461022d57604036600319011261022d57610ccd611d83565b7f1cf6bd838fc34ad59d87cc0a5dde53d28f306ebab908f944046649d9bdcbc7e96020610cf8611fd9565b610d0061220c565b6001600160a01b0384169384610d36575b50151560025460ff60a81b8260a81b169060ff60a81b191617600255604051908152a2005b60028054610100600160a81b03191660089290921b610100600160a81b031691909117905584610d11565b3461022d57602036600319011261022d576001600160a01b03610d82611d83565b165f526005602052602060ff60405f2054166040519015158152f35b3461022d575f36600319011261022d576020600954604051908152f35b3461022d57602036600319011261022d576004355f52600460205260405f2060018060a01b0381541690610651600182015491610dfa60028201611df3565b936003820154916004810154600660058301549201549360405197889760ff808860081c1697169589611f8b565b3461022d575f36600319011261022d575f546040516001600160a01b039091168152602090f35b3461022d575f36600319011261022d5760025460405160089190911c6001600160a01b03168152602090f35b3461022d57602036600319011261022d57600435610e9761220c565b80151580610ee3575b15610eaa57600c55005b60405162461bcd60e51b8152602060048201526011602482015270125b9d985b1a59081d1a1c995cda1bdb19607a1b6044820152606490fd5b506064811115610ea0565b3461022d575f36600319011261022d57610f0661220c565b5f80546001600160a01b0319811682556001600160a01b03167f8be0079c531659141344cd1fd0a4f28419497f9722a3daafe3b4186f6b6457e08280a3005b3461022d5760e036600319011261022d5760043567ffffffffffffffff811161022d57610f76903690600401611f5d565b9060243567ffffffffffffffff811161022d57610f97903690600401611f5d565b91906044359360ff8516850361022d57608435946001600160a01b038616860361022d5760a4359260c43567ffffffffffffffff811161022d57610fdf903690600401611f5d565b969095610fea6121cb565b335f52600360205260ff60405f20541661158457841561154657811561150d576001600160a01b038916611461575b604051806101c081011067ffffffffffffffff6101c0830111176113d4576101c08101604052600181525f60208201525f60408201525f60608201524260808201525f60a08201525f60c082015260018060a01b038a1660e08201525f6101008201525f61012082015261108e3687846120d9565b61014082015261109f3684866120d9565b61016082015260ff85166101808201526064356101a0820152335f52600360205260405f20906110de81511515839060ff801983541691151516179055565b6020810151151561ff0083549160081b169061ff00191617825560408101516001830155606081015160028301556080810151600383015560a0810151600483015560c081015160058301556006820160018060a01b0360e0830151166001600160601b0360a01b82541617905561010081015160078301556111776101208201511515600884019060ff801983541691151516179055565b61014081015180519067ffffffffffffffff82116113d4576111a9826111a06009870154611d99565b6009870161211f565b602090601f83116001146113f3576111d892915f91836113e8575b50508160011b915f199060031b1c19161790565b60098301555b61016081015180519067ffffffffffffffff82116113d45761121082611207600a870154611d99565b600a870161211f565b602090601f8311600114611356576101a061129f946112518560ff9b99966112ad9b9996600c965f9261134b5750508160011b915f199060031b1c19161790565b600a8501555b600b84018a610180830151168b19825416179055015191015561127b600654612075565b6006556001600160a01b038c1661131f575b6040519760a0895260a089019161216e565b91868303602088015261216e565b9116604083015260643560608301524260808301526001600160a01b0386169133917f9d2ed09de0603b4531d7ee0f60ed719a586ff03a4a69a39f459e6a5ff36c950a919081900390a360ff60025460a81c1680611316575b61130c57005b6102e393336122a8565b50801515611306565b6001600160a01b038c165f908152600360205260409020600701805461134490612075565b905561128d565b015190505f806111c4565b90600a85015f5260205f20915f5b601f19851681106113bc575061129f946001856112ad9a9895600c956101a09560ff9e9c99601f198116106113a4575b505050811b01600a850155611257565b01515f1960f88460031b161c191690555f8080611394565b91926020600181928685015181550194019201611364565b634e487b7160e01b5f52604160045260245ffd5b015190508e806111c4565b9190600985015f5260205f20905f935b601f1984168510611446576001945083601f1981161061142e575b505050811b0160098301556111de565b01515f1960f88460031b161c191690558d808061141e565b81810151835560209485019460019093019290910190611403565b6001600160a01b0389165f9081526003602052604090205460ff16156114cf57336001600160a01b038a16036110195760405162461bcd60e51b815260206004820152601660248201527521b0b73737ba1034b73b34ba32903cb7bab939b2b63360511b6044820152606490fd5b60405162461bcd60e51b8152602060048201526016602482015275125b9d9a5d195c881b9bdd081c9959da5cdd195c995960521b6044820152606490fd5b60405162461bcd60e51b8152602060048201526011602482015270131bd8d85d1a5bdb881c995c5d5a5c9959607a1b6044820152606490fd5b60405162461bcd60e51b815260206004820152601660248201527511da59c81ddbdc9ac81d1e5c19481c995c5d5a5c995960521b6044820152606490fd5b60405162461bcd60e51b8152602060048201526012602482015271105b1c9958591e481c9959da5cdd195c995960721b6044820152606490fd5b3461022d575f36600319011261022d576040516370a0823160e01b81523060048201526020816024817f00000000000000000000000000000000000000000000000000000000000000006001600160a01b03165afa80156107a2575f9061162b575b602090604051908152f35b506020813d602011611656575b8161164560209383611dd1565b8101031261022d5760209051611620565b3d9150611638565b3461022d575f36600319011261022d576020600c54604051908152f35b3461022d575f36600319011261022d57602060ff600254166040519015158152f35b3461022d575f36600319011261022d576116b561220c565b6116bd6121cb565b600160ff1960025416176002557f62e78cea01bee320cd4e420270b5ea74000d11b0c9f74754ebdbfc544b05a2586020604051338152a17f587f3b25da67017c0da715067ea23a00ce02a7692dde05787d04b933a06881986020604051428152a1005b3461022d575f36600319011261022d576020600754604051908152f35b3461022d57602036600319011261022d576001600160a01b0361175e611d83565b165f52600360205260405f2060018101548060011b8181046002148215171561179f5760ff6060935460081c16159060405192835260208301526040820152f35b634e487b7160e01b5f52601160045260245ffd5b3461022d57604036600319011261022d576024356001600160a01b0381169081900361022d576004355f526004602052600760405f2001905f52602052602060ff60405f2054166040519015158152f35b3461022d57602036600319011261022d576001600160a01b0380611826611d83565b165f52600360205260405f209061065182549160018401549360028101549160038201549060048301549060058401549060068501541660078501549060ff6008870154169261187860098801611df3565b94611885600a8901611df3565b96600c60ff600b8b015416990154996040519d8d8f9e8f9060ff809160081c16921690611ed3565b3461022d575f36600319011261022d576118c561220c565b60025460ff81161561192e5760ff19166002557f5db9ee0a495bf2e6ff9c91a7834c1ba4fdd244a5e8aa4e537bd38aeae4b073aa6020604051338152a17f1e7a8ac67210be5d6edb8a93048473305f40bd55241b6a205517452213cdb06f6020604051428152a1005b604051638dfc202b60e01b8152600490fd5b3461022d575f36600319011261022d576020600654604051908152f35b3461022d5760208060031936011261022d57611977611d83565b61197f61220c565b6001600160a01b03165f81815260038352604090205490919060ff1615611a4357815f526003815260ff60405f205460081c16611a0c577fdd693a177a52fa3229391fffcec4b55154891837a73f4c0eb7acd8ca2d20e02290825f526003815260405f2061010061ff00198254161790556005815260405f20600160ff19825416179055604051428152a2005b6064906040519062461bcd60e51b82526004820152601060248201526f105b1c9958591e481d995c9a599a595960821b6044820152fd5b6064906040519062461bcd60e51b82526004820152601560248201527415dbdc9ad95c881b9bdd081c9959da5cdd195c9959605a1b6044820152fd5b3461022d5760208060031936011261022d57600435611aa16008548210611fe8565b805f5260048252611abc60ff600660405f2001541615612029565b611ac46121cb565b611acc6121e9565b805f526004825260405f20611ae86003820154600a5490612068565b421115611cb057600681018054611b0260ff821615612029565b6004830154611b15600585015482612068565b8015611c7b5760648202918083046064149015171561179f5760ff1983166001178455600c54910410611c49576101019061ffff191617905560018060a01b0390818154165f5260038452600560405f2042600482015501611b778154612075565b90556001810193845460075490810390811161179f576007558154855460405163a9059cbb60e01b8152918516600483015260248201529281846044815f7f000000000000000000000000000000000000000000000000000000000000000086165af19283156107a257611c156040947f16e04bfb5489150e3c987936df55005f0f7fb64bc8360275f323da78bd2c601b965f91611c2c575061209b565b541694549082519182524290820152a35b60018055005b611c439150853d871161079b5761078d8183611dd1565b896106fe565b505050907f2f5e86646586587e39ccb0d178efa3ef0bda8267370162c98d8c4de99e6a4bd690604051428152a2611c26565b60405162461bcd60e51b815260048101889052600d60248201526c139bc81d9bdd195cc818d85cdd609a1b6044820152606490fd5b60405162461bcd60e51b8152600481018490526013602482015272566f74696e67207374696c6c2061637469766560681b6044820152606490fd5b3461022d575f36600319011261022d576040517f00000000000000000000000000000000000000000000000000000000000000006001600160a01b03168152602090f35b3461022d575f36600319011261022d576020600d54604051908152f35b3461022d575f36600319011261022d576020600854604051908152f35b3461022d575f36600319011261022d57602090600a548152f35b600435906001600160a01b038216820361022d57565b90600182811c92168015611dc7575b6020831014611db357565b634e487b7160e01b5f52602260045260245ffd5b91607f1691611da8565b90601f8019910116810190811067ffffffffffffffff8211176113d457604052565b9060405191825f8254611e0581611d99565b908184526020946001916001811690815f14611e735750600114611e35575b505050611e3392500383611dd1565b565b5f90815285812095935091905b818310611e5b575050611e3393508201015f8080611e24565b85548884018501529485019487945091830191611e42565b92505050611e3394925060ff191682840152151560051b8201015f8080611e24565b91908251928382525f5b848110611ebf575050825f602080949584010152601f8019910116010190565b602081830181015184830182015201611e9f565b9a959c9e9d9c611f4297919560ff9b9560606101a09f9b958f9097611f519e986101c09b15158352151560208301526040820152015260808d015260a08c015260c08b015260018060a01b031660e08a0152610100890152151561012088015280610140880152860190611e95565b90848203610160860152611e95565b95166101808201520152565b9181601f8401121561022d5782359167ffffffffffffffff831161022d576020838186019501011161022d57565b96939897949192611fbb9160e097946101009160018060a01b03168a5260208a01528060408a0152880190611e95565b976060870152608086015260a0850152151560c08401521515910152565b60243590811515820361022d57565b15611fef57565b60405162461bcd60e51b8152602060048201526012602482015271125b9d985b1a59081c995c5d595cdd08125160721b6044820152606490fd5b1561203057565b60405162461bcd60e51b815260206004820152601060248201526f105b1c9958591e48195e1958dd5d195960821b6044820152606490fd5b9190820180921161179f57565b5f19811461179f5760010190565b9081602091031261022d5751801515810361022d5790565b156120a257565b60405162461bcd60e51b815260206004820152600f60248201526e151c985b9cd9995c8819985a5b1959608a1b6044820152606490fd5b92919267ffffffffffffffff82116113d45760405191612103601f8201601f191660200184611dd1565b82948184528183011161022d578281602093845f960137010152565b601f821161212c57505050565b5f5260205f20906020601f840160051c83019310612164575b601f0160051c01905b818110612159575050565b5f815560010161214e565b9091508190612145565b908060209392818452848401375f828201840152601f01601f1916010190565b1561219557565b60405162461bcd60e51b815260206004820152600e60248201526d139bdd081c9959da5cdd195c995960921b6044820152606490fd5b60ff600254166121d757565b60405163d93c066560e01b8152600490fd5b6002600154146121fa576002600155565b604051633ee5aeb560e01b8152600490fd5b5f546001600160a01b0316330361221f57565b60405163118cdaa760e01b8152336004820152602490fd5b5f60443d1061229457604051600319913d83016004833e815167ffffffffffffffff918282113d6024840111176122975781840194855193841161229f573d85010160208487010111612297575061229492910160200190611dd1565b90565b949350505050565b50949350505050565b919392909260018060a01b0380931693845f526020936003855260409360ff6008865f2001541661245c5785925f886123198560025460081c1694895198899788968795637272de3d60e11b87526004870152169d8e6024860152604485015260806064850152608484019161216e565b03925af15f918161243d575b506123d7575060015f60033d116123c7575b6308c379a014612384575b61234d575b50505050565b7f81d8a5c0501ca1caf46067dad265469da52de7601a6766cab1cb0c6a4c37bad7918151905f82524290820152a35f808080612347565b61238c612237565b1561234257505f84847f81d8a5c0501ca1caf46067dad265469da52de7601a6766cab1cb0c6a4c37bad78480515f81524288820152a3612342565b5060045f803e5f5160e01c612337565b61241a917f81d8a5c0501ca1caf46067dad265469da52de7601a6766cab1cb0c6a4c37bad7938261241f575b505190151581524260208201529081906040820190565b0390a3565b600390865f52526008815f2001600160ff198254161790555f612403565b612455919250843d861161079b5761078d8183611dd1565b905f612325565b505050505050505056fea26469706673582212204851d13fa65070493fe81023d3933e18c8bdd971e7feff94ee8055b79f61e75c64736f6c63430008180033","linkReferences":{}},"methodIdentifiers":{"cUSD()":"1fccf672","claimEngagementReward(address,uint256,bytes)":"e5f79f0a","contribute(uint256)":"c1cbbca7","emergencyPause()":"51858e27","engagementRewards()":"84e8d253","engagementRewardsEnabled()":"ea1491b3","executeWithdrawal(uint256)":"24f13a76","getContractBalance()":"6f9fb98a","getPoolStats()":"bbb85188","getWithdrawalLimits(address)":"4afd5d55","getWithdrawalRequest(uint256)":"ae485651","getWorkerInfo(address)":"ce8ef7a6","hasVoted(uint256,address)":"43859632","maxWithdrawalPercentage()":"1b53f711","minimumContribution()":"937e09b1","owner()":"8da5cb5b","paused()":"5c975abb","registerWorker(string,string,uint8,uint256,address,uint256,bytes)":"707b4466","renounceOwnership()":"715018a6","requestWithdrawal(uint256,string)":"ba2d5168","setEngagementRewards(address,bool)":"ab9aa3b2","setMinimumContribution(uint256)":"dba3e704","setVotingThreshold(uint256)":"836761e0","totalPoolBalance()":"5026d63e","totalWorkers()":"381737b8","transferOwnership(address)":"f2fde38b","unpause()":"3f4ba83a","verifiedIdentities(address)":"a53cf409","verifyWorker(address)":"2b30368c","voteOnWithdrawal(uint256,bool)":"d3055aac","votingPeriod()":"02a251a3","votingThreshold()":"62827733","withdrawalCooldown()":"d6c89c60","withdrawalRequestCount()":"19e44e32","withdrawalRequests(uint256)":"937b2581","workers(address)":"4048a257"},"id":32}